{
  "contractName": "BountyApp",
  "abi": [
    {
      "constant": true,
      "inputs": [
        {
          "name": "",
          "type": "address"
        }
      ],
      "name": "user",
      "outputs": [
        {
          "name": "id",
          "type": "int256"
        },
        {
          "name": "userName",
          "type": "string"
        },
        {
          "name": "password",
          "type": "string"
        },
        {
          "name": "role",
          "type": "int256"
        },
        {
          "name": "exist",
          "type": "bool"
        }
      ],
      "payable": false,
      "stateMutability": "view",
      "type": "function"
    },
    {
      "constant": true,
      "inputs": [
        {
          "name": "",
          "type": "int256"
        }
      ],
      "name": "job",
      "outputs": [
        {
          "name": "title",
          "type": "string"
        },
        {
          "name": "description",
          "type": "string"
        },
        {
          "name": "employer",
          "type": "address"
        },
        {
          "name": "freelancer",
          "type": "address"
        },
        {
          "name": "status",
          "type": "int256"
        },
        {
          "name": "price",
          "type": "uint256"
        },
        {
          "name": "exist",
          "type": "bool"
        }
      ],
      "payable": false,
      "stateMutability": "view",
      "type": "function"
    },
    {
      "inputs": [],
      "payable": false,
      "stateMutability": "nonpayable",
      "type": "constructor"
    },
    {
      "anonymous": false,
      "inputs": [
        {
          "indexed": false,
          "name": "jobId",
          "type": "int256"
        },
        {
          "indexed": false,
          "name": "finished",
          "type": "bool"
        }
      ],
      "name": "jobIsFinished",
      "type": "event"
    },
    {
      "anonymous": false,
      "inputs": [
        {
          "indexed": false,
          "name": "id",
          "type": "int256"
        },
        {
          "indexed": false,
          "name": "userName",
          "type": "string"
        },
        {
          "indexed": false,
          "name": "password",
          "type": "string"
        },
        {
          "indexed": false,
          "name": "role",
          "type": "int256"
        },
        {
          "indexed": false,
          "name": "exist",
          "type": "bool"
        }
      ],
      "name": "userIsLogin",
      "type": "event"
    },
    {
      "anonymous": false,
      "inputs": [
        {
          "indexed": false,
          "name": "jobId",
          "type": "int256"
        },
        {
          "indexed": false,
          "name": "title",
          "type": "string"
        },
        {
          "indexed": false,
          "name": "description",
          "type": "string"
        },
        {
          "indexed": false,
          "name": "employer",
          "type": "address"
        },
        {
          "indexed": false,
          "name": "freelancer",
          "type": "address"
        },
        {
          "indexed": false,
          "name": "status",
          "type": "int256"
        },
        {
          "indexed": false,
          "name": "price",
          "type": "uint256"
        },
        {
          "indexed": false,
          "name": "exist",
          "type": "bool"
        }
      ],
      "name": "jobIsCreated",
      "type": "event"
    },
    {
      "anonymous": false,
      "inputs": [
        {
          "indexed": false,
          "name": "jobId",
          "type": "int256"
        }
      ],
      "name": "jobIdNow",
      "type": "event"
    },
    {
      "constant": false,
      "inputs": [
        {
          "name": "_userName",
          "type": "string"
        },
        {
          "name": "_password",
          "type": "string"
        },
        {
          "name": "_role",
          "type": "int256"
        }
      ],
      "name": "signUp",
      "outputs": [
        {
          "components": [
            {
              "name": "id",
              "type": "int256"
            },
            {
              "name": "userName",
              "type": "string"
            },
            {
              "name": "password",
              "type": "string"
            },
            {
              "name": "role",
              "type": "int256"
            },
            {
              "name": "exist",
              "type": "bool"
            }
          ],
          "name": "",
          "type": "tuple"
        }
      ],
      "payable": false,
      "stateMutability": "nonpayable",
      "type": "function"
    },
    {
      "constant": false,
      "inputs": [
        {
          "name": "_userName",
          "type": "string"
        },
        {
          "name": "_password",
          "type": "string"
        }
      ],
      "name": "login",
      "outputs": [
        {
          "components": [
            {
              "name": "id",
              "type": "int256"
            },
            {
              "name": "userName",
              "type": "string"
            },
            {
              "name": "password",
              "type": "string"
            },
            {
              "name": "role",
              "type": "int256"
            },
            {
              "name": "exist",
              "type": "bool"
            }
          ],
          "name": "",
          "type": "tuple"
        }
      ],
      "payable": false,
      "stateMutability": "nonpayable",
      "type": "function"
    },
    {
      "constant": false,
      "inputs": [
        {
          "name": "_title",
          "type": "string"
        },
        {
          "name": "_description",
          "type": "string"
        },
        {
          "name": "_status",
          "type": "int256"
        },
        {
          "name": "_price",
          "type": "uint256"
        }
      ],
      "name": "createJob",
      "outputs": [
        {
          "components": [
            {
              "name": "title",
              "type": "string"
            },
            {
              "name": "description",
              "type": "string"
            },
            {
              "name": "employer",
              "type": "address"
            },
            {
              "name": "freelancer",
              "type": "address"
            },
            {
              "name": "status",
              "type": "int256"
            },
            {
              "name": "price",
              "type": "uint256"
            },
            {
              "name": "exist",
              "type": "bool"
            }
          ],
          "name": "",
          "type": "tuple"
        }
      ],
      "payable": false,
      "stateMutability": "nonpayable",
      "type": "function"
    },
    {
      "constant": false,
      "inputs": [],
      "name": "getJobId",
      "outputs": [
        {
          "name": "",
          "type": "int256"
        }
      ],
      "payable": false,
      "stateMutability": "nonpayable",
      "type": "function"
    },
    {
      "constant": false,
      "inputs": [
        {
          "name": "_jobId",
          "type": "int256"
        }
      ],
      "name": "getJob",
      "outputs": [
        {
          "components": [
            {
              "name": "title",
              "type": "string"
            },
            {
              "name": "description",
              "type": "string"
            },
            {
              "name": "employer",
              "type": "address"
            },
            {
              "name": "freelancer",
              "type": "address"
            },
            {
              "name": "status",
              "type": "int256"
            },
            {
              "name": "price",
              "type": "uint256"
            },
            {
              "name": "exist",
              "type": "bool"
            }
          ],
          "name": "",
          "type": "tuple"
        }
      ],
      "payable": false,
      "stateMutability": "nonpayable",
      "type": "function"
    },
    {
      "constant": false,
      "inputs": [
        {
          "name": "_jobId",
          "type": "int256"
        }
      ],
      "name": "confirmByFreelancer",
      "outputs": [
        {
          "name": "",
          "type": "address"
        }
      ],
      "payable": false,
      "stateMutability": "nonpayable",
      "type": "function"
    },
    {
      "constant": false,
      "inputs": [
        {
          "name": "_jobId",
          "type": "int256"
        },
        {
          "name": "_freelancer",
          "type": "address"
        }
      ],
      "name": "confirmByEmployer",
      "outputs": [
        {
          "components": [
            {
              "name": "title",
              "type": "string"
            },
            {
              "name": "description",
              "type": "string"
            },
            {
              "name": "employer",
              "type": "address"
            },
            {
              "name": "freelancer",
              "type": "address"
            },
            {
              "name": "status",
              "type": "int256"
            },
            {
              "name": "price",
              "type": "uint256"
            },
            {
              "name": "exist",
              "type": "bool"
            }
          ],
          "name": "",
          "type": "tuple"
        }
      ],
      "payable": false,
      "stateMutability": "nonpayable",
      "type": "function"
    },
    {
      "constant": false,
      "inputs": [
        {
          "name": "_jobId",
          "type": "int256"
        }
      ],
      "name": "workSubmission",
      "outputs": [
        {
          "components": [
            {
              "name": "title",
              "type": "string"
            },
            {
              "name": "description",
              "type": "string"
            },
            {
              "name": "employer",
              "type": "address"
            },
            {
              "name": "freelancer",
              "type": "address"
            },
            {
              "name": "status",
              "type": "int256"
            },
            {
              "name": "price",
              "type": "uint256"
            },
            {
              "name": "exist",
              "type": "bool"
            }
          ],
          "name": "",
          "type": "tuple"
        }
      ],
      "payable": false,
      "stateMutability": "nonpayable",
      "type": "function"
    },
    {
      "constant": false,
      "inputs": [
        {
          "name": "_jobId",
          "type": "int256"
        }
      ],
      "name": "transfer",
      "outputs": [
        {
          "components": [
            {
              "name": "title",
              "type": "string"
            },
            {
              "name": "description",
              "type": "string"
            },
            {
              "name": "employer",
              "type": "address"
            },
            {
              "name": "freelancer",
              "type": "address"
            },
            {
              "name": "status",
              "type": "int256"
            },
            {
              "name": "price",
              "type": "uint256"
            },
            {
              "name": "exist",
              "type": "bool"
            }
          ],
          "name": "",
          "type": "tuple"
        }
      ],
      "payable": true,
      "stateMutability": "payable",
      "type": "function"
    }
  ],
  "bytecode": "0x608060405260008055600060015534801561001957600080fd5b5033600260006101000a81548173ffffffffffffffffffffffffffffffffffffffff021916908373ffffffffffffffffffffffffffffffffffffffff16021790555061387c8061006a6000396000f3006080604052600436106100af576000357c0100000000000000000000000000000000000000000000000000000000900463ffffffff1680632ea0e259146100b4578063309496f2146100f15780633e7de1cf1461012e57806358467dbc1461016b578063626bc08b146101a857806366ea8119146101e557806381e7e20e14610215578063aed265df14610256578063b02f7fe014610293578063e8f281ec146102be578063fe89b0d514610301575b600080fd5b3480156100c057600080fd5b506100db60048036036100d69190810190612a9c565b61033e565b6040516100e891906136b6565b60405180910390f35b3480156100fd57600080fd5b5061011860048036036101139190810190612bec565b610693565b60405161012591906136b6565b60405180910390f35b34801561013a57600080fd5b5061015560048036036101509190810190612ac5565b610b71565b60405161016291906136b6565b60405180910390f35b34801561017757600080fd5b50610192600480360361018d9190810190612b01565b61102a565b60405161019f91906136d8565b60405180910390f35b3480156101b457600080fd5b506101cf60048036036101ca9190810190612a9c565b6116d6565b6040516101dc91906136b6565b60405180910390f35b6101ff60048036036101fa9190810190612a9c565b611b39565b60405161020c91906136b6565b60405180910390f35b34801561022157600080fd5b5061023c60048036036102379190810190612a73565b611f60565b60405161024d95949392919061336b565b60405180910390f35b34801561026257600080fd5b5061027d60048036036102789190810190612a9c565b6120d3565b60405161028a919061321f565b60405180910390f35b34801561029f57600080fd5b506102a861224d565b6040516102b5919061323a565b60405180910390f35b3480156102ca57600080fd5b506102e560048036036102e09190810190612a9c565b612290565b6040516102f897969594939291906134b9565b60405180910390f35b34801561030d57600080fd5b5061032860048036036103239190810190612b6d565b61244f565b60405161033591906136d8565b60405180910390f35b61034661289e565b7f7b600d3732f68b0571eff6dc5d38cb3a6f2322e6eeb64ea42d537cf5dcfc126e8260046000858152602001908152602001600020600001600460008681526020019081526020016000206001016004600087815260200190815260200160002060020160009054906101000a900473ffffffffffffffffffffffffffffffffffffffff166004600088815260200190815260200160002060030160009054906101000a900473ffffffffffffffffffffffffffffffffffffffff166004600089815260200190815260200160002060040154600460008a81526020019081526020016000206005015460016040516104469897969594939291906133cc565b60405180910390a16004600083815260200190815260200160002060e06040519081016040529081600082018054600181600116156101000203166002900480601f0160208091040260200160405190810160405280929190818152602001828054600181600116156101000203166002900480156105065780601f106104db57610100808354040283529160200191610506565b820191906000526020600020905b8154815290600101906020018083116104e957829003601f168201915b50505050508152602001600182018054600181600116156101000203166002900480601f0160208091040260200160405190810160405280929190818152602001828054600181600116156101000203166002900480156105a85780601f1061057d576101008083540402835291602001916105a8565b820191906000526020600020905b81548152906001019060200180831161058b57829003601f168201915b505050505081526020016002820160009054906101000a900473ffffffffffffffffffffffffffffffffffffffff1673ffffffffffffffffffffffffffffffffffffffff1673ffffffffffffffffffffffffffffffffffffffff1681526020016003820160009054906101000a900473ffffffffffffffffffffffffffffffffffffffff1673ffffffffffffffffffffffffffffffffffffffff1673ffffffffffffffffffffffffffffffffffffffff16815260200160048201548152602001600582015481526020016006820160009054906101000a900460ff1615151515815250509050919050565b61069b61289e565b600080600360003373ffffffffffffffffffffffffffffffffffffffff1673ffffffffffffffffffffffffffffffffffffffff16815260200190815260200160002060030154141515610723576040517f08c379a000000000000000000000000000000000000000000000000000000000815260040161071a906135f6565b60405180910390fd5b823373ffffffffffffffffffffffffffffffffffffffff16311015151561077f576040517f08c379a000000000000000000000000000000000000000000000000000000000815260040161077690613636565b60405180910390fd5b60018054016001819055508560046000600154815260200190815260200160002060000190805190602001906107b692919061290a565b508460046000600154815260200190815260200160002060010190805190602001906107e392919061290a565b503360046000600154815260200190815260200160002060020160006101000a81548173ffffffffffffffffffffffffffffffffffffffff021916908373ffffffffffffffffffffffffffffffffffffffff16021790555083600460006001548152602001908152602001600020600401819055508260046000600154815260200190815260200160002060050181905550600160046000600154815260200190815260200160002060060160006101000a81548160ff0219169083151502179055507f7b600d3732f68b0571eff6dc5d38cb3a6f2322e6eeb64ea42d537cf5dcfc126e60015487873360046000600154815260200190815260200160002060030160009054906101000a900473ffffffffffffffffffffffffffffffffffffffff168989600160405161091e98979695949392919061327e565b60405180910390a160046000600154815260200190815260200160002060e06040519081016040529081600082018054600181600116156101000203166002900480601f0160208091040260200160405190810160405280929190818152602001828054600181600116156101000203166002900480156109e05780601f106109b5576101008083540402835291602001916109e0565b820191906000526020600020905b8154815290600101906020018083116109c357829003601f168201915b50505050508152602001600182018054600181600116156101000203166002900480601f016020809104026020016040519081016040528092919081815260200182805460018160011615610100020316600290048015610a825780601f10610a5757610100808354040283529160200191610a82565b820191906000526020600020905b815481529060010190602001808311610a6557829003601f168201915b505050505081526020016002820160009054906101000a900473ffffffffffffffffffffffffffffffffffffffff1673ffffffffffffffffffffffffffffffffffffffff1673ffffffffffffffffffffffffffffffffffffffff1681526020016003820160009054906101000a900473ffffffffffffffffffffffffffffffffffffffff1673ffffffffffffffffffffffffffffffffffffffff1673ffffffffffffffffffffffffffffffffffffffff16815260200160048201548152602001600582015481526020016006820160009054906101000a900460ff161515151581525050915050949350505050565b610b7961289e565b600080600360003373ffffffffffffffffffffffffffffffffffffffff1673ffffffffffffffffffffffffffffffffffffffff16815260200190815260200160002060030154141515610c01576040517f08c379a0000000000000000000000000000000000000000000000000000000008152600401610bf8906135f6565b60405180910390fd5b600184600115156004600083815260200190815260200160002060060160009054906101000a900460ff161515141515610c70576040517f08c379a0000000000000000000000000000000000000000000000000000000008152600401610c6790613596565b60405180910390fd5b816004600083815260200190815260200160002060040154141515610cca576040517f08c379a0000000000000000000000000000000000000000000000000000000008152600401610cc190613656565b60405180910390fd5b3373ffffffffffffffffffffffffffffffffffffffff166004600088815260200190815260200160002060020160009054906101000a900473ffffffffffffffffffffffffffffffffffffffff1673ffffffffffffffffffffffffffffffffffffffff16141515610d70576040517f08c379a0000000000000000000000000000000000000000000000000000000008152600401610d6790613616565b60405180910390fd5b60026004600088815260200190815260200160002060040181905550846004600088815260200190815260200160002060030160006101000a81548173ffffffffffffffffffffffffffffffffffffffff021916908373ffffffffffffffffffffffffffffffffffffffff1602179055506004600087815260200190815260200160002060e06040519081016040529081600082018054600181600116156101000203166002900480601f016020809104026020016040519081016040528092919081815260200182805460018160011615610100020316600290048015610e995780601f10610e6e57610100808354040283529160200191610e99565b820191906000526020600020905b815481529060010190602001808311610e7c57829003601f168201915b50505050508152602001600182018054600181600116156101000203166002900480601f016020809104026020016040519081016040528092919081815260200182805460018160011615610100020316600290048015610f3b5780601f10610f1057610100808354040283529160200191610f3b565b820191906000526020600020905b815481529060010190602001808311610f1e57829003601f168201915b505050505081526020016002820160009054906101000a900473ffffffffffffffffffffffffffffffffffffffff1673ffffffffffffffffffffffffffffffffffffffff1673ffffffffffffffffffffffffffffffffffffffff1681526020016003820160009054906101000a900473ffffffffffffffffffffffffffffffffffffffff1673ffffffffffffffffffffffffffffffffffffffff1673ffffffffffffffffffffffffffffffffffffffff16815260200160048201548152602001600582015481526020016006820160009054906101000a900460ff161515151581525050935050505092915050565b61103261298a565b828260011515600360003373ffffffffffffffffffffffffffffffffffffffff1673ffffffffffffffffffffffffffffffffffffffff16815260200190815260200160002060040160009054906101000a900460ff1615151415156110cc576040517f08c379a00000000000000000000000000000000000000000000000000000000081526004016110c390613536565b60405180910390fd5b816040518082805190602001908083835b60208310151561110257805182526020820191506020810190506020830392506110dd565b6001836020036101000a038019825116818451168082178552505050505050905001915050604051809103902060001916600360003373ffffffffffffffffffffffffffffffffffffffff1673ffffffffffffffffffffffffffffffffffffffff16815260200190815260200160002060010160405180828054600181600116156101000203166002900480156111d05780601f106111ae5761010080835404028352918201916111d0565b820191906000526020600020905b8154815290600101906020018083116111bc575b5050915050604051809103902060001916141515611223576040517f08c379a000000000000000000000000000000000000000000000000000000000815260040161121a90613696565b60405180910390fd5b806040518082805190602001908083835b6020831015156112595780518252602082019150602081019050602083039250611234565b6001836020036101000a038019825116818451168082178552505050505050905001915050604051809103902060001916600360003373ffffffffffffffffffffffffffffffffffffffff1673ffffffffffffffffffffffffffffffffffffffff16815260200190815260200160002060020160405180828054600181600116156101000203166002900480156113275780601f10611305576101008083540402835291820191611327565b820191906000526020600020905b815481529060010190602001808311611313575b505091505060405180910390206000191614151561137a576040517f08c379a000000000000000000000000000000000000000000000000000000000815260040161137190613556565b60405180910390fd5b7f831ce6f9d183463fa1975a5626ac0ccef01dca35d3426769dd80dc1534e45ad3600360003373ffffffffffffffffffffffffffffffffffffffff1673ffffffffffffffffffffffffffffffffffffffff16815260200190815260200160002060000154600360003373ffffffffffffffffffffffffffffffffffffffff1673ffffffffffffffffffffffffffffffffffffffff168152602001908152602001600020600101600360003373ffffffffffffffffffffffffffffffffffffffff1673ffffffffffffffffffffffffffffffffffffffff168152602001908152602001600020600201600360003373ffffffffffffffffffffffffffffffffffffffff1673ffffffffffffffffffffffffffffffffffffffff16815260200190815260200160002060030154600360003373ffffffffffffffffffffffffffffffffffffffff1673ffffffffffffffffffffffffffffffffffffffff16815260200190815260200160002060040160009054906101000a900460ff16604051611506959493929190613458565b60405180910390a1600360003373ffffffffffffffffffffffffffffffffffffffff1673ffffffffffffffffffffffffffffffffffffffff16815260200190815260200160002060a0604051908101604052908160008201548152602001600182018054600181600116156101000203166002900480601f0160208091040260200160405190810160405280929190818152602001828054600181600116156101000203166002900480156115fc5780601f106115d1576101008083540402835291602001916115fc565b820191906000526020600020905b8154815290600101906020018083116115df57829003601f168201915b50505050508152602001600282018054600181600116156101000203166002900480601f01602080910402602001604051908101604052809291908181526020018280546001816001161561010002031660029004801561169e5780601f106116735761010080835404028352916020019161169e565b820191906000526020600020905b81548152906001019060200180831161168157829003601f168201915b50505050508152602001600382015481526020016004820160009054906101000a900460ff1615151515815250509250505092915050565b6116de61289e565b600180600360003373ffffffffffffffffffffffffffffffffffffffff1673ffffffffffffffffffffffffffffffffffffffff16815260200190815260200160002060030154141515611766576040517f08c379a000000000000000000000000000000000000000000000000000000000815260040161175d906135f6565b60405180910390fd5b600283600115156004600083815260200190815260200160002060060160009054906101000a900460ff1615151415156117d5576040517f08c379a00000000000000000000000000000000000000000000000000000000081526004016117cc90613596565b60405180910390fd5b81600460008381526020019081526020016000206004015414151561182f576040517f08c379a000000000000000000000000000000000000000000000000000000000815260040161182690613656565b60405180910390fd5b3373ffffffffffffffffffffffffffffffffffffffff166004600087815260200190815260200160002060030160009054906101000a900473ffffffffffffffffffffffffffffffffffffffff1673ffffffffffffffffffffffffffffffffffffffff161415156118d5576040517f08c379a00000000000000000000000000000000000000000000000000000000081526004016118cc90613576565b60405180910390fd5b600360046000878152602001908152602001600020600401819055506004600086815260200190815260200160002060e06040519081016040529081600082018054600181600116156101000203166002900480601f0160208091040260200160405190810160405280929190818152602001828054600181600116156101000203166002900480156119a95780601f1061197e576101008083540402835291602001916119a9565b820191906000526020600020905b81548152906001019060200180831161198c57829003601f168201915b50505050508152602001600182018054600181600116156101000203166002900480601f016020809104026020016040519081016040528092919081815260200182805460018160011615610100020316600290048015611a4b5780601f10611a2057610100808354040283529160200191611a4b565b820191906000526020600020905b815481529060010190602001808311611a2e57829003601f168201915b505050505081526020016002820160009054906101000a900473ffffffffffffffffffffffffffffffffffffffff1673ffffffffffffffffffffffffffffffffffffffff1673ffffffffffffffffffffffffffffffffffffffff1681526020016003820160009054906101000a900473ffffffffffffffffffffffffffffffffffffffff1673ffffffffffffffffffffffffffffffffffffffff1673ffffffffffffffffffffffffffffffffffffffff16815260200160048201548152602001600582015481526020016006820160009054906101000a900460ff1615151515815250509350505050919050565b611b4161289e565b813373ffffffffffffffffffffffffffffffffffffffff166004600083815260200190815260200160002060020160009054906101000a900473ffffffffffffffffffffffffffffffffffffffff1673ffffffffffffffffffffffffffffffffffffffff16141515611be8576040517f08c379a0000000000000000000000000000000000000000000000000000000008152600401611bdf90613676565b60405180910390fd5b60046000828152602001908152602001600020600501543373ffffffffffffffffffffffffffffffffffffffff1631111515611c59576040517f08c379a0000000000000000000000000000000000000000000000000000000008152600401611c50906135b6565b60405180910390fd5b6004806000858152602001908152602001600020600401819055506004600084815260200190815260200160002060030160009054906101000a900473ffffffffffffffffffffffffffffffffffffffff1673ffffffffffffffffffffffffffffffffffffffff166108fc349081150290604051600060405180830381858888f19350505050507ffefc122f6de7c5d8300622ecb4e23f48998bc53bb726e6bd4537afae107ec095836001604051611d12929190613255565b60405180910390a16004600084815260200190815260200160002060e06040519081016040529081600082018054600181600116156101000203166002900480601f016020809104026020016040519081016040528092919081815260200182805460018160011615610100020316600290048015611dd25780601f10611da757610100808354040283529160200191611dd2565b820191906000526020600020905b815481529060010190602001808311611db557829003601f168201915b50505050508152602001600182018054600181600116156101000203166002900480601f016020809104026020016040519081016040528092919081815260200182805460018160011615610100020316600290048015611e745780601f10611e4957610100808354040283529160200191611e74565b820191906000526020600020905b815481529060010190602001808311611e5757829003601f168201915b505050505081526020016002820160009054906101000a900473ffffffffffffffffffffffffffffffffffffffff1673ffffffffffffffffffffffffffffffffffffffff1673ffffffffffffffffffffffffffffffffffffffff1681526020016003820160009054906101000a900473ffffffffffffffffffffffffffffffffffffffff1673ffffffffffffffffffffffffffffffffffffffff1673ffffffffffffffffffffffffffffffffffffffff16815260200160048201548152602001600582015481526020016006820160009054906101000a900460ff161515151581525050915050919050565b6003602052806000526040600020600091509050806000015490806001018054600181600116156101000203166002900480601f0160208091040260200160405190810160405280929190818152602001828054600181600116156101000203166002900480156120125780601f10611fe757610100808354040283529160200191612012565b820191906000526020600020905b815481529060010190602001808311611ff557829003601f168201915b505050505090806002018054600181600116156101000203166002900480601f0160208091040260200160405190810160405280929190818152602001828054600181600116156101000203166002900480156120b05780601f10612085576101008083540402835291602001916120b0565b820191906000526020600020905b81548152906001019060200180831161209357829003601f168201915b5050505050908060030154908060040160009054906101000a900460ff16905085565b6000600180600360003373ffffffffffffffffffffffffffffffffffffffff1673ffffffffffffffffffffffffffffffffffffffff1681526020019081526020016000206003015414151561215d576040517f08c379a0000000000000000000000000000000000000000000000000000000008152600401612154906135f6565b60405180910390fd5b600083600115156004600083815260200190815260200160002060060160009054906101000a900460ff1615151415156121cc576040517f08c379a00000000000000000000000000000000000000000000000000000000081526004016121c390613596565b60405180910390fd5b816004600083815260200190815260200160002060040154141515612226576040517f08c379a000000000000000000000000000000000000000000000000000000000815260040161221d90613656565b60405180910390fd5b60016004600087815260200190815260200160002060040181905550339350505050919050565b60007f2df1bd99f82e4649ca3d7a5427768e20e14a89ae23e6f7ccfa7b479d42d2fd67600154604051612280919061323a565b60405180910390a1600154905090565b6004602052806000526040600020600091509050806000018054600181600116156101000203166002900480601f01602080910402602001604051908101604052809291908181526020018280546001816001161561010002031660029004801561233c5780601f106123115761010080835404028352916020019161233c565b820191906000526020600020905b81548152906001019060200180831161231f57829003601f168201915b505050505090806001018054600181600116156101000203166002900480601f0160208091040260200160405190810160405280929190818152602001828054600181600116156101000203166002900480156123da5780601f106123af576101008083540402835291602001916123da565b820191906000526020600020905b8154815290600101906020018083116123bd57829003601f168201915b5050505050908060020160009054906101000a900473ffffffffffffffffffffffffffffffffffffffff16908060030160009054906101000a900473ffffffffffffffffffffffffffffffffffffffff16908060040154908060050154908060060160009054906101000a900460ff16905087565b61245761298a565b60011515600360003373ffffffffffffffffffffffffffffffffffffffff1673ffffffffffffffffffffffffffffffffffffffff16815260200190815260200160002060040160009054906101000a900460ff161515141515156124f0576040517f08c379a00000000000000000000000000000000000000000000000000000000081526004016124e7906135d6565b60405180910390fd5b600160005401600081905550600054600360003373ffffffffffffffffffffffffffffffffffffffff1673ffffffffffffffffffffffffffffffffffffffff1681526020019081526020016000206000018190555083600360003373ffffffffffffffffffffffffffffffffffffffff1673ffffffffffffffffffffffffffffffffffffffff168152602001908152602001600020600101908051906020019061259b92919061290a565b5082600360003373ffffffffffffffffffffffffffffffffffffffff1673ffffffffffffffffffffffffffffffffffffffff16815260200190815260200160002060020190805190602001906125f292919061290a565b5081600360003373ffffffffffffffffffffffffffffffffffffffff1673ffffffffffffffffffffffffffffffffffffffff168152602001908152602001600020600301819055506001600360003373ffffffffffffffffffffffffffffffffffffffff1673ffffffffffffffffffffffffffffffffffffffff16815260200190815260200160002060040160006101000a81548160ff0219169083151502179055507f831ce6f9d183463fa1975a5626ac0ccef01dca35d3426769dd80dc1534e45ad360005485858560016040516126cf95949392919061330a565b60405180910390a1600360003373ffffffffffffffffffffffffffffffffffffffff1673ffffffffffffffffffffffffffffffffffffffff16815260200190815260200160002060a0604051908101604052908160008201548152602001600182018054600181600116156101000203166002900480601f0160208091040260200160405190810160405280929190818152602001828054600181600116156101000203166002900480156127c55780601f1061279a576101008083540402835291602001916127c5565b820191906000526020600020905b8154815290600101906020018083116127a857829003601f168201915b50505050508152602001600282018054600181600116156101000203166002900480601f0160208091040260200160405190810160405280929190818152602001828054600181600116156101000203166002900480156128675780601f1061283c57610100808354040283529160200191612867565b820191906000526020600020905b81548152906001019060200180831161284a57829003601f168201915b50505050508152602001600382015481526020016004820160009054906101000a900460ff16151515158152505090509392505050565b60e0604051908101604052806060815260200160608152602001600073ffffffffffffffffffffffffffffffffffffffff168152602001600073ffffffffffffffffffffffffffffffffffffffff16815260200160008152602001600081526020016000151581525090565b828054600181600116156101000203166002900490600052602060002090601f016020900481019282601f1061294b57805160ff1916838001178555612979565b82800160010185558215612979579182015b8281111561297857825182559160200191906001019061295d565b5b50905061298691906129bc565b5090565b60a060405190810160405280600081526020016060815260200160608152602001600081526020016000151581525090565b6129de91905b808211156129da5760008160009055506001016129c2565b5090565b90565b60006129ed82356137bb565b905092915050565b6000612a0182356137db565b905092915050565b600082601f8301121515612a1c57600080fd5b8135612a2f612a2a82613727565b6136fa565b91508082526020830160208301858383011115612a4b57600080fd5b612a568382846137ef565b50505092915050565b6000612a6b82356137e5565b905092915050565b600060208284031215612a8557600080fd5b6000612a93848285016129e1565b91505092915050565b600060208284031215612aae57600080fd5b6000612abc848285016129f5565b91505092915050565b60008060408385031215612ad857600080fd5b6000612ae6858286016129f5565b9250506020612af7858286016129e1565b9150509250929050565b60008060408385031215612b1457600080fd5b600083013567ffffffffffffffff811115612b2e57600080fd5b612b3a85828601612a09565b925050602083013567ffffffffffffffff811115612b5757600080fd5b612b6385828601612a09565b9150509250929050565b600080600060608486031215612b8257600080fd5b600084013567ffffffffffffffff811115612b9c57600080fd5b612ba886828701612a09565b935050602084013567ffffffffffffffff811115612bc557600080fd5b612bd186828701612a09565b9250506040612be2868287016129f5565b9150509250925092565b60008060008060808587031215612c0257600080fd5b600085013567ffffffffffffffff811115612c1c57600080fd5b612c2887828801612a09565b945050602085013567ffffffffffffffff811115612c4557600080fd5b612c5187828801612a09565b9350506040612c62878288016129f5565b9250506060612c7387828801612a5f565b91505092959194509250565b612c888161377b565b82525050565b612c978161379b565b82525050565b612ca6816137a7565b82525050565b6000612cb782613770565b808452612ccb8160208601602086016137fe565b612cd481613831565b602085010191505092915050565b6000612ced82613765565b808452612d018160208601602086016137fe565b612d0a81613831565b602085010191505092915050565b600081546001811660008114612d355760018114612d5557612d96565b607f600283041680865260ff198316602087015260408601935050612d96565b60028204808652602086019550612d6b85613753565b60005b82811015612d8d57815481890152600182019150602081019050612d6e565b80880195505050505b505092915050565b6000602482527f546865207573657220686173206e6f74206265656e207265676973746572656460208301527f20212121000000000000000000000000000000000000000000000000000000006040830152606082019050919050565b6000601782527f5468652070617373776f726420697320696e76616c69640000000000000000006020830152604082019050919050565b6000602f82527f5468652075736572206973206e6f742074686520667265656c616e636572206660208301527f6f722074686973206a6f622021212100000000000000000000000000000000006040830152606082019050919050565b6000601982527f546865206a6f62206973206e6f742072656769737465726564000000000000006020830152604082019050919050565b6000601682527f4e6f20656e6f756768206d6f6e657920746f20706179000000000000000000006020830152604082019050919050565b6000602582527f54686520757365722068617320616c7265616479206265656e2065786973746560208301527f64202121210000000000000000000000000000000000000000000000000000006040830152606082019050919050565b6000602182527f546865207573657220686173206e6f7420636f727265637420726f6c6520212160208301527f21000000000000000000000000000000000000000000000000000000000000006040830152606082019050919050565b6000602d82527f5468652075736572206973206e6f742074686520656d706c6f79657220666f7260208301527f2074686973206a6f6220212121000000000000000000000000000000000000006040830152606082019050919050565b6000601782527f4e6f7420656e6f756768206d6f6e657920746f207061790000000000000000006020830152604082019050919050565b6000601d82527f546865206a6f6220697320616c726561647920696e2070726f636573730000006020830152604082019050919050565b6000601a82527f54686520656d706c6f79657220697320696e76616c69642021210000000000006020830152604082019050919050565b6000601782527f54686520757365726e616d6520697320696e76616c69640000000000000000006020830152604082019050919050565b600060e083016000830151848203600086015261310d8282612ce2565b915050602083015184820360208601526131278282612ce2565b915050604083015161313c6040860182612c7f565b50606083015161314f6060860182612c7f565b5060808301516131626080860182612c9d565b5060a083015161317560a0860182613210565b5060c083015161318860c0860182612c8e565b508091505092915050565b600060a0830160008301516131ab6000860182612c9d565b50602083015184820360208601526131c38282612ce2565b915050604083015184820360408601526131dd8282612ce2565b91505060608301516131f26060860182612c9d565b5060808301516132056080860182612c8e565b508091505092915050565b613219816137b1565b82525050565b60006020820190506132346000830184612c7f565b92915050565b600060208201905061324f6000830184612c9d565b92915050565b600060408201905061326a6000830185612c9d565b6132776020830184612c8e565b9392505050565b600061010082019050613294600083018b612c9d565b81810360208301526132a6818a612cac565b905081810360408301526132ba8189612cac565b90506132c96060830188612c7f565b6132d66080830187612c7f565b6132e360a0830186612c9d565b6132f060c0830185613210565b6132fd60e0830184612c8e565b9998505050505050505050565b600060a08201905061331f6000830188612c9d565b81810360208301526133318187612cac565b905081810360408301526133458186612cac565b90506133546060830185612c9d565b6133616080830184612c8e565b9695505050505050565b600060a0820190506133806000830188612c9d565b81810360208301526133928187612ce2565b905081810360408301526133a68186612ce2565b90506133b56060830185612c9d565b6133c26080830184612c8e565b9695505050505050565b6000610100820190506133e2600083018b612c9d565b81810360208301526133f4818a612d18565b905081810360408301526134088189612d18565b90506134176060830188612c7f565b6134246080830187612c7f565b61343160a0830186612c9d565b61343e60c0830185613210565b61344b60e0830184612c8e565b9998505050505050505050565b600060a08201905061346d6000830188612c9d565b818103602083015261347f8187612d18565b905081810360408301526134938186612d18565b90506134a26060830185612c9d565b6134af6080830184612c8e565b9695505050505050565b600060e08201905081810360008301526134d3818a612ce2565b905081810360208301526134e78189612ce2565b90506134f66040830188612c7f565b6135036060830187612c7f565b6135106080830186612c9d565b61351d60a0830185613210565b61352a60c0830184612c8e565b98975050505050505050565b6000602082019050818103600083015261354f81612d9e565b9050919050565b6000602082019050818103600083015261356f81612dfb565b9050919050565b6000602082019050818103600083015261358f81612e32565b9050919050565b600060208201905081810360008301526135af81612e8f565b9050919050565b600060208201905081810360008301526135cf81612ec6565b9050919050565b600060208201905081810360008301526135ef81612efd565b9050919050565b6000602082019050818103600083015261360f81612f5a565b9050919050565b6000602082019050818103600083015261362f81612fb7565b9050919050565b6000602082019050818103600083015261364f81613014565b9050919050565b6000602082019050818103600083015261366f8161304b565b9050919050565b6000602082019050818103600083015261368f81613082565b9050919050565b600060208201905081810360008301526136af816130b9565b9050919050565b600060208201905081810360008301526136d081846130f0565b905092915050565b600060208201905081810360008301526136f28184613193565b905092915050565b6000604051905081810181811067ffffffffffffffff8211171561371d57600080fd5b8060405250919050565b600067ffffffffffffffff82111561373e57600080fd5b601f19601f8301169050602081019050919050565b60008160005260206000209050919050565b600081519050919050565b600081519050919050565b600073ffffffffffffffffffffffffffffffffffffffff82169050919050565b60008115159050919050565b6000819050919050565b6000819050919050565b600073ffffffffffffffffffffffffffffffffffffffff82169050919050565b6000819050919050565b6000819050919050565b82818337600083830152505050565b60005b8381101561381c578082015181840152602081019050613801565b8381111561382b576000848401525b50505050565b6000601f19601f83011690509190505600a265627a7a72305820b16bba780e1d6258f583acbf4c555b8fbd6eb37625325778d8044f70b47c56e66c6578706572696d656e74616cf50037",
  "source": "pragma solidity ^0.4.24;\r\npragma experimental ABIEncoderV2;\r\n\r\n//import \"./Utils.sol\";\r\n\r\ncontract BountyApp{\r\n\r\n//    using Utils for *;\r\n\r\n    int userId = 0;\r\n    int jobId = 0;\r\n    address private owner;\r\n\r\n    struct UserProfile{\r\n        int id;\r\n        string userName;\r\n        string password;\r\n        int role;\r\n        bool exist;\r\n    }\r\n\r\n    struct JobProfile{\r\n        string title;\r\n        string description;\r\n        address employer;\r\n        address freelancer;\r\n        int status;\r\n        uint price;\r\n        bool exist;\r\n\r\n    }\r\n\r\n    mapping(address => UserProfile) public user;\r\n    mapping(int => JobProfile) public job;\r\n\r\n    event jobIsFinished(\r\n        int jobId,\r\n        bool finished\r\n    );\r\n\r\n\r\n    event userIsLogin(\r\n        int id,\r\n        string userName,\r\n        string password,\r\n        int role,\r\n        bool exist\r\n    );\r\n\r\n    event jobIsCreated(\r\n        int jobId,\r\n        string title,\r\n        string description,\r\n        address employer,\r\n        address freelancer,\r\n        int status,\r\n        uint price,\r\n        bool exist\r\n    );\r\n\r\n\r\n    event jobIdNow(\r\n        int jobId\r\n    );\r\n\r\n\r\n\r\n    modifier isOwner() {\r\n        require(msg.sender == owner, 'The address is not owner !!');\r\n        _;\r\n    }\r\n\r\n    modifier isDuplicated() {\r\n        require(user[msg.sender].exist != true , 'The user has already been existed !!!');\r\n        _;\r\n    }\r\n\r\n    modifier isRegisteredUser(string _userName, string _password) {\r\n        require(user[msg.sender].exist == true , 'The user has not been registered !!!');\r\n        require( keccak256(user[msg.sender].userName) == keccak256(_userName) , 'The username is invalid');\r\n        require( keccak256(user[msg.sender].password) == keccak256(_password) , 'The password is invalid');\r\n        _;\r\n    }\r\n\r\n    modifier isValidRole(int _role) {\r\n        require(user[msg.sender].role == _role , 'The user has not correct role !!!');\r\n        _;\r\n    }\r\n\r\n    modifier isValidJob(int _status, int _jobId) {\r\n        require(job[_jobId].exist == true, 'The job is not registered');\r\n        require(job[_jobId].status == _status, 'The job is already in process');\r\n        _;\r\n    }\r\n\r\n    modifier isValidTransfer(int _jobId){\r\n        require(job[_jobId].employer == msg.sender, 'The employer is invalid !!');\r\n        require(msg.sender.balance > job[_jobId].price, 'No enough money to pay');\r\n        _;\r\n    }\r\n\r\n    constructor() public {\r\n        owner= msg.sender;\r\n    }\r\n\r\n    function signUp(string _userName, string _password, int _role) public isDuplicated returns (UserProfile){\r\n\r\n        userId = userId + 1;\r\n\r\n        user[msg.sender].id = userId;\r\n        user[msg.sender].userName = _userName;\r\n        user[msg.sender].password = _password;\r\n        user[msg.sender].role = _role;\r\n        user[msg.sender].exist = true;\r\n\r\n        emit userIsLogin(userId, _userName, _password, _role, true);\r\n\r\n        return user[msg.sender];\r\n\r\n    }\r\n\r\n    function login(string _userName, string _password) public isRegisteredUser(_userName, _password) returns (UserProfile) {\r\n\r\n        emit userIsLogin(user[msg.sender].id, user[msg.sender].userName, user[msg.sender].password, user[msg.sender].role, user[msg.sender].exist);\r\n\r\n        return user[msg.sender];\r\n\r\n    }\r\n\r\n    function createJob(string _title, string _description, int _status, uint _price) public isValidRole(0) returns (JobProfile) {\r\n\r\n        require(msg.sender.balance >= _price, 'Not enough money to pay');\r\n\r\n        jobId = jobId + 1;\r\n        job[jobId].title = _title;\r\n        job[jobId].description = _description;\r\n        job[jobId].employer = msg.sender;\r\n        job[jobId].status = _status;\r\n        job[jobId].price = _price;\r\n        job[jobId].exist = true;\r\n\r\n        emit jobIsCreated(jobId, _title, _description, msg.sender, job[jobId].freelancer, _status, _price, true);\r\n\r\n    return job[jobId];\r\n\r\n    }\r\n\r\n    function getJobId() public returns(int) {\r\n        emit jobIdNow(jobId);\r\n        return jobId;\r\n    }\r\n\r\n\r\n    function getJob(int _jobId) public returns(JobProfile) {\r\n\r\n        emit jobIsCreated(_jobId, job[_jobId].title, job[_jobId].description, job[_jobId].employer, job[_jobId].freelancer, job[_jobId].status, job[_jobId].price, true);\r\n        return job[_jobId];\r\n    }\r\n\r\n    function confirmByFreelancer(int _jobId) public isValidRole(1) isValidJob(0, _jobId) returns (address){\r\n\r\n        job[_jobId].status = 1;\r\n\r\n        return msg.sender;\r\n\r\n    }\r\n\r\n    function confirmByEmployer(int _jobId, address _freelancer) isValidRole(0) isValidJob(1, _jobId) public returns (JobProfile){\r\n\r\n        require(job[_jobId].employer == msg.sender , 'The user is not the employer for this job !!!');\r\n\r\n        job[_jobId].status = 2;\r\n        job[_jobId].freelancer = _freelancer;\r\n\r\n        return job[_jobId];\r\n\r\n    }\r\n\r\n    function workSubmission(int _jobId) public isValidRole(1) isValidJob(2, _jobId) returns (JobProfile){\r\n\r\n        require(job[_jobId].freelancer == msg.sender , 'The user is not the freelancer for this job !!!');\r\n\r\n        job[_jobId].status = 3;\r\n\r\n        return job[_jobId];\r\n\r\n    }\r\n\r\n\r\n    function transfer(int _jobId) public payable isValidTransfer(_jobId) returns (JobProfile){\r\n\r\n        job[_jobId].status = 4;\r\n\r\n        job[_jobId].freelancer.send(msg.value);\r\n\r\n        emit jobIsFinished(_jobId, true);\r\n\r\n        return job[_jobId];\r\n\r\n    }\r\n\r\n\r\n    function remove() private isOwner{\r\n        selfdestruct(0x0);\r\n    }\r\n}\r\n",
  "sourcePath": "G:\\Work\\Ponisha\\SCPonisha\\SCReact\\contracts\\BountyApp.sol",
  "compiler": {
    "name": "solc",
    "version": "0.4.25+commit.59dbf8f1.Emscripten.clang"
  },
  "schemaVersion": "2.0.2",
  "updatedAt": "2020-12-22T14:17:48.725Z"
}