{
  "contractName": "BountyApp",
  "abi": [
    {
      "constant": true,
      "inputs": [
        {
          "name": "",
          "type": "address"
        }
      ],
      "name": "user",
      "outputs": [
        {
          "name": "id",
          "type": "int256"
        },
        {
          "name": "userName",
          "type": "string"
        },
        {
          "name": "password",
          "type": "string"
        },
        {
          "name": "role",
          "type": "int256"
        },
        {
          "name": "exist",
          "type": "bool"
        }
      ],
      "payable": false,
      "stateMutability": "view",
      "type": "function"
    },
    {
      "constant": true,
      "inputs": [
        {
          "name": "",
          "type": "int256"
        }
      ],
      "name": "job",
      "outputs": [
        {
          "name": "title",
          "type": "string"
        },
        {
          "name": "description",
          "type": "string"
        },
        {
          "name": "employer",
          "type": "address"
        },
        {
          "name": "freelancer",
          "type": "address"
        },
        {
          "name": "status",
          "type": "int256"
        },
        {
          "name": "price",
          "type": "uint256"
        },
        {
          "name": "exist",
          "type": "bool"
        }
      ],
      "payable": false,
      "stateMutability": "view",
      "type": "function"
    },
    {
      "inputs": [],
      "payable": false,
      "stateMutability": "nonpayable",
      "type": "constructor"
    },
    {
      "anonymous": false,
      "inputs": [
        {
          "indexed": false,
          "name": "jobId",
          "type": "int256"
        },
        {
          "indexed": false,
          "name": "finished",
          "type": "bool"
        }
      ],
      "name": "jobIsFinished",
      "type": "event"
    },
    {
      "anonymous": false,
      "inputs": [
        {
          "indexed": false,
          "name": "id",
          "type": "int256"
        },
        {
          "indexed": false,
          "name": "userName",
          "type": "string"
        },
        {
          "indexed": false,
          "name": "password",
          "type": "string"
        },
        {
          "indexed": false,
          "name": "role",
          "type": "int256"
        },
        {
          "indexed": false,
          "name": "exist",
          "type": "bool"
        }
      ],
      "name": "userIsLogin",
      "type": "event"
    },
    {
      "anonymous": false,
      "inputs": [
        {
          "indexed": false,
          "name": "jobId",
          "type": "int256"
        },
        {
          "indexed": false,
          "name": "title",
          "type": "string"
        },
        {
          "indexed": false,
          "name": "description",
          "type": "string"
        },
        {
          "indexed": false,
          "name": "employer",
          "type": "address"
        },
        {
          "indexed": false,
          "name": "freelancer",
          "type": "address"
        },
        {
          "indexed": false,
          "name": "status",
          "type": "int256"
        },
        {
          "indexed": false,
          "name": "price",
          "type": "uint256"
        },
        {
          "indexed": false,
          "name": "exist",
          "type": "bool"
        }
      ],
      "name": "jobIsCreated",
      "type": "event"
    },
    {
      "anonymous": false,
      "inputs": [
        {
          "indexed": false,
          "name": "jobId",
          "type": "int256"
        }
      ],
      "name": "jobIdNow",
      "type": "event"
    },
    {
      "constant": false,
      "inputs": [
        {
          "name": "_userName",
          "type": "string"
        },
        {
          "name": "_password",
          "type": "string"
        },
        {
          "name": "_role",
          "type": "int256"
        }
      ],
      "name": "signUp",
      "outputs": [
        {
          "components": [
            {
              "name": "id",
              "type": "int256"
            },
            {
              "name": "userName",
              "type": "string"
            },
            {
              "name": "password",
              "type": "string"
            },
            {
              "name": "role",
              "type": "int256"
            },
            {
              "name": "exist",
              "type": "bool"
            }
          ],
          "name": "",
          "type": "tuple"
        }
      ],
      "payable": false,
      "stateMutability": "nonpayable",
      "type": "function"
    },
    {
      "constant": false,
      "inputs": [
        {
          "name": "_userName",
          "type": "string"
        },
        {
          "name": "_password",
          "type": "string"
        }
      ],
      "name": "login",
      "outputs": [
        {
          "components": [
            {
              "name": "id",
              "type": "int256"
            },
            {
              "name": "userName",
              "type": "string"
            },
            {
              "name": "password",
              "type": "string"
            },
            {
              "name": "role",
              "type": "int256"
            },
            {
              "name": "exist",
              "type": "bool"
            }
          ],
          "name": "",
          "type": "tuple"
        }
      ],
      "payable": false,
      "stateMutability": "nonpayable",
      "type": "function"
    },
    {
      "constant": false,
      "inputs": [
        {
          "name": "_title",
          "type": "string"
        },
        {
          "name": "_description",
          "type": "string"
        },
        {
          "name": "_status",
          "type": "int256"
        },
        {
          "name": "_price",
          "type": "uint256"
        }
      ],
      "name": "createJob",
      "outputs": [
        {
          "components": [
            {
              "name": "title",
              "type": "string"
            },
            {
              "name": "description",
              "type": "string"
            },
            {
              "name": "employer",
              "type": "address"
            },
            {
              "name": "freelancer",
              "type": "address"
            },
            {
              "name": "status",
              "type": "int256"
            },
            {
              "name": "price",
              "type": "uint256"
            },
            {
              "name": "exist",
              "type": "bool"
            }
          ],
          "name": "",
          "type": "tuple"
        }
      ],
      "payable": false,
      "stateMutability": "nonpayable",
      "type": "function"
    },
    {
      "constant": false,
      "inputs": [],
      "name": "getJobId",
      "outputs": [
        {
          "name": "",
          "type": "int256"
        }
      ],
      "payable": false,
      "stateMutability": "nonpayable",
      "type": "function"
    },
    {
      "constant": false,
      "inputs": [
        {
          "name": "_jobId",
          "type": "int256"
        }
      ],
      "name": "getJob",
      "outputs": [
        {
          "components": [
            {
              "name": "title",
              "type": "string"
            },
            {
              "name": "description",
              "type": "string"
            },
            {
              "name": "employer",
              "type": "address"
            },
            {
              "name": "freelancer",
              "type": "address"
            },
            {
              "name": "status",
              "type": "int256"
            },
            {
              "name": "price",
              "type": "uint256"
            },
            {
              "name": "exist",
              "type": "bool"
            }
          ],
          "name": "",
          "type": "tuple"
        }
      ],
      "payable": false,
      "stateMutability": "nonpayable",
      "type": "function"
    },
    {
      "constant": false,
      "inputs": [
        {
          "name": "_jobId",
          "type": "int256"
        }
      ],
      "name": "confirmByFreelancer",
      "outputs": [
        {
          "name": "",
          "type": "address"
        }
      ],
      "payable": false,
      "stateMutability": "nonpayable",
      "type": "function"
    },
    {
      "constant": false,
      "inputs": [
        {
          "name": "_jobId",
          "type": "int256"
        },
        {
          "name": "_freelancer",
          "type": "address"
        }
      ],
      "name": "confirmByEmployer",
      "outputs": [
        {
          "components": [
            {
              "name": "title",
              "type": "string"
            },
            {
              "name": "description",
              "type": "string"
            },
            {
              "name": "employer",
              "type": "address"
            },
            {
              "name": "freelancer",
              "type": "address"
            },
            {
              "name": "status",
              "type": "int256"
            },
            {
              "name": "price",
              "type": "uint256"
            },
            {
              "name": "exist",
              "type": "bool"
            }
          ],
          "name": "",
          "type": "tuple"
        }
      ],
      "payable": false,
      "stateMutability": "nonpayable",
      "type": "function"
    },
    {
      "constant": false,
      "inputs": [
        {
          "name": "_jobId",
          "type": "int256"
        }
      ],
      "name": "workSubmission",
      "outputs": [
        {
          "components": [
            {
              "name": "title",
              "type": "string"
            },
            {
              "name": "description",
              "type": "string"
            },
            {
              "name": "employer",
              "type": "address"
            },
            {
              "name": "freelancer",
              "type": "address"
            },
            {
              "name": "status",
              "type": "int256"
            },
            {
              "name": "price",
              "type": "uint256"
            },
            {
              "name": "exist",
              "type": "bool"
            }
          ],
          "name": "",
          "type": "tuple"
        }
      ],
      "payable": false,
      "stateMutability": "nonpayable",
      "type": "function"
    },
    {
      "constant": false,
      "inputs": [
        {
          "name": "_jobId",
          "type": "int256"
        }
      ],
      "name": "transfer",
      "outputs": [
        {
          "components": [
            {
              "name": "title",
              "type": "string"
            },
            {
              "name": "description",
              "type": "string"
            },
            {
              "name": "employer",
              "type": "address"
            },
            {
              "name": "freelancer",
              "type": "address"
            },
            {
              "name": "status",
              "type": "int256"
            },
            {
              "name": "price",
              "type": "uint256"
            },
            {
              "name": "exist",
              "type": "bool"
            }
          ],
          "name": "",
          "type": "tuple"
        }
      ],
      "payable": true,
      "stateMutability": "payable",
      "type": "function"
    }
  ],
  "bytecode": "0x608060405260008055600060015534801561001957600080fd5b5033600260006101000a81548173ffffffffffffffffffffffffffffffffffffffff021916908373ffffffffffffffffffffffffffffffffffffffff1602179055506137c98061006a6000396000f3006080604052600436106100af576000357c0100000000000000000000000000000000000000000000000000000000900463ffffffff1680632ea0e259146100b4578063309496f2146100f15780633e7de1cf1461012e57806358467dbc1461016b578063626bc08b146101a857806366ea8119146101e557806381e7e20e14610215578063aed265df14610256578063b02f7fe014610293578063e8f281ec146102be578063fe89b0d514610301575b600080fd5b3480156100c057600080fd5b506100db60048036036100d69190810190612a40565b61033e565b6040516100e89190613603565b60405180910390f35b3480156100fd57600080fd5b5061011860048036036101139190810190612b90565b610693565b6040516101259190613603565b60405180910390f35b34801561013a57600080fd5b5061015560048036036101509190810190612a69565b610b15565b6040516101629190613603565b60405180910390f35b34801561017757600080fd5b50610192600480360361018d9190810190612aa5565b610fce565b60405161019f9190613625565b60405180910390f35b3480156101b457600080fd5b506101cf60048036036101ca9190810190612a40565b61167a565b6040516101dc9190613603565b60405180910390f35b6101ff60048036036101fa9190810190612a40565b611add565b60405161020c9190613603565b60405180910390f35b34801561022157600080fd5b5061023c60048036036102379190810190612a17565b611f04565b60405161024d9594939291906132d8565b60405180910390f35b34801561026257600080fd5b5061027d60048036036102789190810190612a40565b612077565b60405161028a919061318c565b60405180910390f35b34801561029f57600080fd5b506102a86121f1565b6040516102b591906131a7565b60405180910390f35b3480156102ca57600080fd5b506102e560048036036102e09190810190612a40565b612234565b6040516102f89796959493929190613426565b60405180910390f35b34801561030d57600080fd5b5061032860048036036103239190810190612b11565b6123f3565b6040516103359190613625565b60405180910390f35b610346612842565b7f7b600d3732f68b0571eff6dc5d38cb3a6f2322e6eeb64ea42d537cf5dcfc126e8260046000858152602001908152602001600020600001600460008681526020019081526020016000206001016004600087815260200190815260200160002060020160009054906101000a900473ffffffffffffffffffffffffffffffffffffffff166004600088815260200190815260200160002060030160009054906101000a900473ffffffffffffffffffffffffffffffffffffffff166004600089815260200190815260200160002060040154600460008a8152602001908152602001600020600501546001604051610446989796959493929190613339565b60405180910390a16004600083815260200190815260200160002060e06040519081016040529081600082018054600181600116156101000203166002900480601f0160208091040260200160405190810160405280929190818152602001828054600181600116156101000203166002900480156105065780601f106104db57610100808354040283529160200191610506565b820191906000526020600020905b8154815290600101906020018083116104e957829003601f168201915b50505050508152602001600182018054600181600116156101000203166002900480601f0160208091040260200160405190810160405280929190818152602001828054600181600116156101000203166002900480156105a85780601f1061057d576101008083540402835291602001916105a8565b820191906000526020600020905b81548152906001019060200180831161058b57829003601f168201915b505050505081526020016002820160009054906101000a900473ffffffffffffffffffffffffffffffffffffffff1673ffffffffffffffffffffffffffffffffffffffff1673ffffffffffffffffffffffffffffffffffffffff1681526020016003820160009054906101000a900473ffffffffffffffffffffffffffffffffffffffff1673ffffffffffffffffffffffffffffffffffffffff1673ffffffffffffffffffffffffffffffffffffffff16815260200160048201548152602001600582015481526020016006820160009054906101000a900460ff1615151515815250509050919050565b61069b612842565b600080600360003373ffffffffffffffffffffffffffffffffffffffff1673ffffffffffffffffffffffffffffffffffffffff16815260200190815260200160002060030154141515610723576040517f08c379a000000000000000000000000000000000000000000000000000000000815260040161071a90613563565b60405180910390fd5b600180540160018190555085600460006001548152602001908152602001600020600001908051906020019061075a9291906128ae565b508460046000600154815260200190815260200160002060010190805190602001906107879291906128ae565b503360046000600154815260200190815260200160002060020160006101000a81548173ffffffffffffffffffffffffffffffffffffffff021916908373ffffffffffffffffffffffffffffffffffffffff16021790555083600460006001548152602001908152602001600020600401819055508260046000600154815260200190815260200160002060050181905550600160046000600154815260200190815260200160002060060160006101000a81548160ff0219169083151502179055507f7b600d3732f68b0571eff6dc5d38cb3a6f2322e6eeb64ea42d537cf5dcfc126e60015487873360046000600154815260200190815260200160002060030160009054906101000a900473ffffffffffffffffffffffffffffffffffffffff16898960016040516108c29897969594939291906131eb565b60405180910390a160046000600154815260200190815260200160002060e06040519081016040529081600082018054600181600116156101000203166002900480601f0160208091040260200160405190810160405280929190818152602001828054600181600116156101000203166002900480156109845780601f1061095957610100808354040283529160200191610984565b820191906000526020600020905b81548152906001019060200180831161096757829003601f168201915b50505050508152602001600182018054600181600116156101000203166002900480601f016020809104026020016040519081016040528092919081815260200182805460018160011615610100020316600290048015610a265780601f106109fb57610100808354040283529160200191610a26565b820191906000526020600020905b815481529060010190602001808311610a0957829003601f168201915b505050505081526020016002820160009054906101000a900473ffffffffffffffffffffffffffffffffffffffff1673ffffffffffffffffffffffffffffffffffffffff1673ffffffffffffffffffffffffffffffffffffffff1681526020016003820160009054906101000a900473ffffffffffffffffffffffffffffffffffffffff1673ffffffffffffffffffffffffffffffffffffffff1673ffffffffffffffffffffffffffffffffffffffff16815260200160048201548152602001600582015481526020016006820160009054906101000a900460ff161515151581525050915050949350505050565b610b1d612842565b600080600360003373ffffffffffffffffffffffffffffffffffffffff1673ffffffffffffffffffffffffffffffffffffffff16815260200190815260200160002060030154141515610ba5576040517f08c379a0000000000000000000000000000000000000000000000000000000008152600401610b9c90613563565b60405180910390fd5b600184600115156004600083815260200190815260200160002060060160009054906101000a900460ff161515141515610c14576040517f08c379a0000000000000000000000000000000000000000000000000000000008152600401610c0b90613503565b60405180910390fd5b816004600083815260200190815260200160002060040154141515610c6e576040517f08c379a0000000000000000000000000000000000000000000000000000000008152600401610c65906135a3565b60405180910390fd5b3373ffffffffffffffffffffffffffffffffffffffff166004600088815260200190815260200160002060020160009054906101000a900473ffffffffffffffffffffffffffffffffffffffff1673ffffffffffffffffffffffffffffffffffffffff16141515610d14576040517f08c379a0000000000000000000000000000000000000000000000000000000008152600401610d0b90613583565b60405180910390fd5b60026004600088815260200190815260200160002060040181905550846004600088815260200190815260200160002060030160006101000a81548173ffffffffffffffffffffffffffffffffffffffff021916908373ffffffffffffffffffffffffffffffffffffffff1602179055506004600087815260200190815260200160002060e06040519081016040529081600082018054600181600116156101000203166002900480601f016020809104026020016040519081016040528092919081815260200182805460018160011615610100020316600290048015610e3d5780601f10610e1257610100808354040283529160200191610e3d565b820191906000526020600020905b815481529060010190602001808311610e2057829003601f168201915b50505050508152602001600182018054600181600116156101000203166002900480601f016020809104026020016040519081016040528092919081815260200182805460018160011615610100020316600290048015610edf5780601f10610eb457610100808354040283529160200191610edf565b820191906000526020600020905b815481529060010190602001808311610ec257829003601f168201915b505050505081526020016002820160009054906101000a900473ffffffffffffffffffffffffffffffffffffffff1673ffffffffffffffffffffffffffffffffffffffff1673ffffffffffffffffffffffffffffffffffffffff1681526020016003820160009054906101000a900473ffffffffffffffffffffffffffffffffffffffff1673ffffffffffffffffffffffffffffffffffffffff1673ffffffffffffffffffffffffffffffffffffffff16815260200160048201548152602001600582015481526020016006820160009054906101000a900460ff161515151581525050935050505092915050565b610fd661292e565b828260011515600360003373ffffffffffffffffffffffffffffffffffffffff1673ffffffffffffffffffffffffffffffffffffffff16815260200190815260200160002060040160009054906101000a900460ff161515141515611070576040517f08c379a0000000000000000000000000000000000000000000000000000000008152600401611067906134a3565b60405180910390fd5b816040518082805190602001908083835b6020831015156110a65780518252602082019150602081019050602083039250611081565b6001836020036101000a038019825116818451168082178552505050505050905001915050604051809103902060001916600360003373ffffffffffffffffffffffffffffffffffffffff1673ffffffffffffffffffffffffffffffffffffffff16815260200190815260200160002060010160405180828054600181600116156101000203166002900480156111745780601f10611152576101008083540402835291820191611174565b820191906000526020600020905b815481529060010190602001808311611160575b50509150506040518091039020600019161415156111c7576040517f08c379a00000000000000000000000000000000000000000000000000000000081526004016111be906135e3565b60405180910390fd5b806040518082805190602001908083835b6020831015156111fd57805182526020820191506020810190506020830392506111d8565b6001836020036101000a038019825116818451168082178552505050505050905001915050604051809103902060001916600360003373ffffffffffffffffffffffffffffffffffffffff1673ffffffffffffffffffffffffffffffffffffffff16815260200190815260200160002060020160405180828054600181600116156101000203166002900480156112cb5780601f106112a95761010080835404028352918201916112cb565b820191906000526020600020905b8154815290600101906020018083116112b7575b505091505060405180910390206000191614151561131e576040517f08c379a0000000000000000000000000000000000000000000000000000000008152600401611315906134c3565b60405180910390fd5b7f831ce6f9d183463fa1975a5626ac0ccef01dca35d3426769dd80dc1534e45ad3600360003373ffffffffffffffffffffffffffffffffffffffff1673ffffffffffffffffffffffffffffffffffffffff16815260200190815260200160002060000154600360003373ffffffffffffffffffffffffffffffffffffffff1673ffffffffffffffffffffffffffffffffffffffff168152602001908152602001600020600101600360003373ffffffffffffffffffffffffffffffffffffffff1673ffffffffffffffffffffffffffffffffffffffff168152602001908152602001600020600201600360003373ffffffffffffffffffffffffffffffffffffffff1673ffffffffffffffffffffffffffffffffffffffff16815260200190815260200160002060030154600360003373ffffffffffffffffffffffffffffffffffffffff1673ffffffffffffffffffffffffffffffffffffffff16815260200190815260200160002060040160009054906101000a900460ff166040516114aa9594939291906133c5565b60405180910390a1600360003373ffffffffffffffffffffffffffffffffffffffff1673ffffffffffffffffffffffffffffffffffffffff16815260200190815260200160002060a0604051908101604052908160008201548152602001600182018054600181600116156101000203166002900480601f0160208091040260200160405190810160405280929190818152602001828054600181600116156101000203166002900480156115a05780601f10611575576101008083540402835291602001916115a0565b820191906000526020600020905b81548152906001019060200180831161158357829003601f168201915b50505050508152602001600282018054600181600116156101000203166002900480601f0160208091040260200160405190810160405280929190818152602001828054600181600116156101000203166002900480156116425780601f1061161757610100808354040283529160200191611642565b820191906000526020600020905b81548152906001019060200180831161162557829003601f168201915b50505050508152602001600382015481526020016004820160009054906101000a900460ff1615151515815250509250505092915050565b611682612842565b600180600360003373ffffffffffffffffffffffffffffffffffffffff1673ffffffffffffffffffffffffffffffffffffffff1681526020019081526020016000206003015414151561170a576040517f08c379a000000000000000000000000000000000000000000000000000000000815260040161170190613563565b60405180910390fd5b600283600115156004600083815260200190815260200160002060060160009054906101000a900460ff161515141515611779576040517f08c379a000000000000000000000000000000000000000000000000000000000815260040161177090613503565b60405180910390fd5b8160046000838152602001908152602001600020600401541415156117d3576040517f08c379a00000000000000000000000000000000000000000000000000000000081526004016117ca906135a3565b60405180910390fd5b3373ffffffffffffffffffffffffffffffffffffffff166004600087815260200190815260200160002060030160009054906101000a900473ffffffffffffffffffffffffffffffffffffffff1673ffffffffffffffffffffffffffffffffffffffff16141515611879576040517f08c379a0000000000000000000000000000000000000000000000000000000008152600401611870906134e3565b60405180910390fd5b600360046000878152602001908152602001600020600401819055506004600086815260200190815260200160002060e06040519081016040529081600082018054600181600116156101000203166002900480601f01602080910402602001604051908101604052809291908181526020018280546001816001161561010002031660029004801561194d5780601f106119225761010080835404028352916020019161194d565b820191906000526020600020905b81548152906001019060200180831161193057829003601f168201915b50505050508152602001600182018054600181600116156101000203166002900480601f0160208091040260200160405190810160405280929190818152602001828054600181600116156101000203166002900480156119ef5780601f106119c4576101008083540402835291602001916119ef565b820191906000526020600020905b8154815290600101906020018083116119d257829003601f168201915b505050505081526020016002820160009054906101000a900473ffffffffffffffffffffffffffffffffffffffff1673ffffffffffffffffffffffffffffffffffffffff1673ffffffffffffffffffffffffffffffffffffffff1681526020016003820160009054906101000a900473ffffffffffffffffffffffffffffffffffffffff1673ffffffffffffffffffffffffffffffffffffffff1673ffffffffffffffffffffffffffffffffffffffff16815260200160048201548152602001600582015481526020016006820160009054906101000a900460ff1615151515815250509350505050919050565b611ae5612842565b813373ffffffffffffffffffffffffffffffffffffffff166004600083815260200190815260200160002060020160009054906101000a900473ffffffffffffffffffffffffffffffffffffffff1673ffffffffffffffffffffffffffffffffffffffff16141515611b8c576040517f08c379a0000000000000000000000000000000000000000000000000000000008152600401611b83906135c3565b60405180910390fd5b60046000828152602001908152602001600020600501543373ffffffffffffffffffffffffffffffffffffffff1631111515611bfd576040517f08c379a0000000000000000000000000000000000000000000000000000000008152600401611bf490613523565b60405180910390fd5b6004806000858152602001908152602001600020600401819055506004600084815260200190815260200160002060030160009054906101000a900473ffffffffffffffffffffffffffffffffffffffff1673ffffffffffffffffffffffffffffffffffffffff166108fc349081150290604051600060405180830381858888f19350505050507ffefc122f6de7c5d8300622ecb4e23f48998bc53bb726e6bd4537afae107ec095836001604051611cb69291906131c2565b60405180910390a16004600084815260200190815260200160002060e06040519081016040529081600082018054600181600116156101000203166002900480601f016020809104026020016040519081016040528092919081815260200182805460018160011615610100020316600290048015611d765780601f10611d4b57610100808354040283529160200191611d76565b820191906000526020600020905b815481529060010190602001808311611d5957829003601f168201915b50505050508152602001600182018054600181600116156101000203166002900480601f016020809104026020016040519081016040528092919081815260200182805460018160011615610100020316600290048015611e185780601f10611ded57610100808354040283529160200191611e18565b820191906000526020600020905b815481529060010190602001808311611dfb57829003601f168201915b505050505081526020016002820160009054906101000a900473ffffffffffffffffffffffffffffffffffffffff1673ffffffffffffffffffffffffffffffffffffffff1673ffffffffffffffffffffffffffffffffffffffff1681526020016003820160009054906101000a900473ffffffffffffffffffffffffffffffffffffffff1673ffffffffffffffffffffffffffffffffffffffff1673ffffffffffffffffffffffffffffffffffffffff16815260200160048201548152602001600582015481526020016006820160009054906101000a900460ff161515151581525050915050919050565b6003602052806000526040600020600091509050806000015490806001018054600181600116156101000203166002900480601f016020809104026020016040519081016040528092919081815260200182805460018160011615610100020316600290048015611fb65780601f10611f8b57610100808354040283529160200191611fb6565b820191906000526020600020905b815481529060010190602001808311611f9957829003601f168201915b505050505090806002018054600181600116156101000203166002900480601f0160208091040260200160405190810160405280929190818152602001828054600181600116156101000203166002900480156120545780601f1061202957610100808354040283529160200191612054565b820191906000526020600020905b81548152906001019060200180831161203757829003601f168201915b5050505050908060030154908060040160009054906101000a900460ff16905085565b6000600180600360003373ffffffffffffffffffffffffffffffffffffffff1673ffffffffffffffffffffffffffffffffffffffff16815260200190815260200160002060030154141515612101576040517f08c379a00000000000000000000000000000000000000000000000000000000081526004016120f890613563565b60405180910390fd5b600083600115156004600083815260200190815260200160002060060160009054906101000a900460ff161515141515612170576040517f08c379a000000000000000000000000000000000000000000000000000000000815260040161216790613503565b60405180910390fd5b8160046000838152602001908152602001600020600401541415156121ca576040517f08c379a00000000000000000000000000000000000000000000000000000000081526004016121c1906135a3565b60405180910390fd5b60016004600087815260200190815260200160002060040181905550339350505050919050565b60007f2df1bd99f82e4649ca3d7a5427768e20e14a89ae23e6f7ccfa7b479d42d2fd6760015460405161222491906131a7565b60405180910390a1600154905090565b6004602052806000526040600020600091509050806000018054600181600116156101000203166002900480601f0160208091040260200160405190810160405280929190818152602001828054600181600116156101000203166002900480156122e05780601f106122b5576101008083540402835291602001916122e0565b820191906000526020600020905b8154815290600101906020018083116122c357829003601f168201915b505050505090806001018054600181600116156101000203166002900480601f01602080910402602001604051908101604052809291908181526020018280546001816001161561010002031660029004801561237e5780601f106123535761010080835404028352916020019161237e565b820191906000526020600020905b81548152906001019060200180831161236157829003601f168201915b5050505050908060020160009054906101000a900473ffffffffffffffffffffffffffffffffffffffff16908060030160009054906101000a900473ffffffffffffffffffffffffffffffffffffffff16908060040154908060050154908060060160009054906101000a900460ff16905087565b6123fb61292e565b60011515600360003373ffffffffffffffffffffffffffffffffffffffff1673ffffffffffffffffffffffffffffffffffffffff16815260200190815260200160002060040160009054906101000a900460ff16151514151515612494576040517f08c379a000000000000000000000000000000000000000000000000000000000815260040161248b90613543565b60405180910390fd5b600160005401600081905550600054600360003373ffffffffffffffffffffffffffffffffffffffff1673ffffffffffffffffffffffffffffffffffffffff1681526020019081526020016000206000018190555083600360003373ffffffffffffffffffffffffffffffffffffffff1673ffffffffffffffffffffffffffffffffffffffff168152602001908152602001600020600101908051906020019061253f9291906128ae565b5082600360003373ffffffffffffffffffffffffffffffffffffffff1673ffffffffffffffffffffffffffffffffffffffff16815260200190815260200160002060020190805190602001906125969291906128ae565b5081600360003373ffffffffffffffffffffffffffffffffffffffff1673ffffffffffffffffffffffffffffffffffffffff168152602001908152602001600020600301819055506001600360003373ffffffffffffffffffffffffffffffffffffffff1673ffffffffffffffffffffffffffffffffffffffff16815260200190815260200160002060040160006101000a81548160ff0219169083151502179055507f831ce6f9d183463fa1975a5626ac0ccef01dca35d3426769dd80dc1534e45ad36000548585856001604051612673959493929190613277565b60405180910390a1600360003373ffffffffffffffffffffffffffffffffffffffff1673ffffffffffffffffffffffffffffffffffffffff16815260200190815260200160002060a0604051908101604052908160008201548152602001600182018054600181600116156101000203166002900480601f0160208091040260200160405190810160405280929190818152602001828054600181600116156101000203166002900480156127695780601f1061273e57610100808354040283529160200191612769565b820191906000526020600020905b81548152906001019060200180831161274c57829003601f168201915b50505050508152602001600282018054600181600116156101000203166002900480601f01602080910402602001604051908101604052809291908181526020018280546001816001161561010002031660029004801561280b5780601f106127e05761010080835404028352916020019161280b565b820191906000526020600020905b8154815290600101906020018083116127ee57829003601f168201915b50505050508152602001600382015481526020016004820160009054906101000a900460ff16151515158152505090509392505050565b60e0604051908101604052806060815260200160608152602001600073ffffffffffffffffffffffffffffffffffffffff168152602001600073ffffffffffffffffffffffffffffffffffffffff16815260200160008152602001600081526020016000151581525090565b828054600181600116156101000203166002900490600052602060002090601f016020900481019282601f106128ef57805160ff191683800117855561291d565b8280016001018555821561291d579182015b8281111561291c578251825591602001919060010190612901565b5b50905061292a9190612960565b5090565b60a060405190810160405280600081526020016060815260200160608152602001600081526020016000151581525090565b61298291905b8082111561297e576000816000905550600101612966565b5090565b90565b60006129918235613708565b905092915050565b60006129a58235613728565b905092915050565b600082601f83011215156129c057600080fd5b81356129d36129ce82613674565b613647565b915080825260208301602083018583830111156129ef57600080fd5b6129fa83828461373c565b50505092915050565b6000612a0f8235613732565b905092915050565b600060208284031215612a2957600080fd5b6000612a3784828501612985565b91505092915050565b600060208284031215612a5257600080fd5b6000612a6084828501612999565b91505092915050565b60008060408385031215612a7c57600080fd5b6000612a8a85828601612999565b9250506020612a9b85828601612985565b9150509250929050565b60008060408385031215612ab857600080fd5b600083013567ffffffffffffffff811115612ad257600080fd5b612ade858286016129ad565b925050602083013567ffffffffffffffff811115612afb57600080fd5b612b07858286016129ad565b9150509250929050565b600080600060608486031215612b2657600080fd5b600084013567ffffffffffffffff811115612b4057600080fd5b612b4c868287016129ad565b935050602084013567ffffffffffffffff811115612b6957600080fd5b612b75868287016129ad565b9250506040612b8686828701612999565b9150509250925092565b60008060008060808587031215612ba657600080fd5b600085013567ffffffffffffffff811115612bc057600080fd5b612bcc878288016129ad565b945050602085013567ffffffffffffffff811115612be957600080fd5b612bf5878288016129ad565b9350506040612c0687828801612999565b9250506060612c1787828801612a03565b91505092959194509250565b612c2c816136c8565b82525050565b612c3b816136e8565b82525050565b612c4a816136f4565b82525050565b6000612c5b826136bd565b808452612c6f81602086016020860161374b565b612c788161377e565b602085010191505092915050565b6000612c91826136b2565b808452612ca581602086016020860161374b565b612cae8161377e565b602085010191505092915050565b600081546001811660008114612cd95760018114612cf957612d3a565b607f600283041680865260ff198316602087015260408601935050612d3a565b60028204808652602086019550612d0f856136a0565b60005b82811015612d3157815481890152600182019150602081019050612d12565b80880195505050505b505092915050565b6000602482527f546865207573657220686173206e6f74206265656e207265676973746572656460208301527f20212121000000000000000000000000000000000000000000000000000000006040830152606082019050919050565b6000601782527f5468652070617373776f726420697320696e76616c69640000000000000000006020830152604082019050919050565b6000602f82527f5468652075736572206973206e6f742074686520667265656c616e636572206660208301527f6f722074686973206a6f622021212100000000000000000000000000000000006040830152606082019050919050565b6000601982527f546865206a6f62206973206e6f742072656769737465726564000000000000006020830152604082019050919050565b6000601682527f4e6f20656e6f756768206d6f6e657920746f20706179000000000000000000006020830152604082019050919050565b6000602582527f54686520757365722068617320616c7265616479206265656e2065786973746560208301527f64202121210000000000000000000000000000000000000000000000000000006040830152606082019050919050565b6000602182527f546865207573657220686173206e6f7420636f727265637420726f6c6520212160208301527f21000000000000000000000000000000000000000000000000000000000000006040830152606082019050919050565b6000602d82527f5468652075736572206973206e6f742074686520656d706c6f79657220666f7260208301527f2074686973206a6f6220212121000000000000000000000000000000000000006040830152606082019050919050565b6000601d82527f546865206a6f6220697320616c726561647920696e2070726f636573730000006020830152604082019050919050565b6000601a82527f54686520656d706c6f79657220697320696e76616c69642021210000000000006020830152604082019050919050565b6000601782527f54686520757365726e616d6520697320696e76616c69640000000000000000006020830152604082019050919050565b600060e083016000830151848203600086015261307a8282612c86565b915050602083015184820360208601526130948282612c86565b91505060408301516130a96040860182612c23565b5060608301516130bc6060860182612c23565b5060808301516130cf6080860182612c41565b5060a08301516130e260a086018261317d565b5060c08301516130f560c0860182612c32565b508091505092915050565b600060a0830160008301516131186000860182612c41565b50602083015184820360208601526131308282612c86565b9150506040830151848203604086015261314a8282612c86565b915050606083015161315f6060860182612c41565b5060808301516131726080860182612c32565b508091505092915050565b613186816136fe565b82525050565b60006020820190506131a16000830184612c23565b92915050565b60006020820190506131bc6000830184612c41565b92915050565b60006040820190506131d76000830185612c41565b6131e46020830184612c32565b9392505050565b600061010082019050613201600083018b612c41565b8181036020830152613213818a612c50565b905081810360408301526132278189612c50565b90506132366060830188612c23565b6132436080830187612c23565b61325060a0830186612c41565b61325d60c083018561317d565b61326a60e0830184612c32565b9998505050505050505050565b600060a08201905061328c6000830188612c41565b818103602083015261329e8187612c50565b905081810360408301526132b28186612c50565b90506132c16060830185612c41565b6132ce6080830184612c32565b9695505050505050565b600060a0820190506132ed6000830188612c41565b81810360208301526132ff8187612c86565b905081810360408301526133138186612c86565b90506133226060830185612c41565b61332f6080830184612c32565b9695505050505050565b60006101008201905061334f600083018b612c41565b8181036020830152613361818a612cbc565b905081810360408301526133758189612cbc565b90506133846060830188612c23565b6133916080830187612c23565b61339e60a0830186612c41565b6133ab60c083018561317d565b6133b860e0830184612c32565b9998505050505050505050565b600060a0820190506133da6000830188612c41565b81810360208301526133ec8187612cbc565b905081810360408301526134008186612cbc565b905061340f6060830185612c41565b61341c6080830184612c32565b9695505050505050565b600060e0820190508181036000830152613440818a612c86565b905081810360208301526134548189612c86565b90506134636040830188612c23565b6134706060830187612c23565b61347d6080830186612c41565b61348a60a083018561317d565b61349760c0830184612c32565b98975050505050505050565b600060208201905081810360008301526134bc81612d42565b9050919050565b600060208201905081810360008301526134dc81612d9f565b9050919050565b600060208201905081810360008301526134fc81612dd6565b9050919050565b6000602082019050818103600083015261351c81612e33565b9050919050565b6000602082019050818103600083015261353c81612e6a565b9050919050565b6000602082019050818103600083015261355c81612ea1565b9050919050565b6000602082019050818103600083015261357c81612efe565b9050919050565b6000602082019050818103600083015261359c81612f5b565b9050919050565b600060208201905081810360008301526135bc81612fb8565b9050919050565b600060208201905081810360008301526135dc81612fef565b9050919050565b600060208201905081810360008301526135fc81613026565b9050919050565b6000602082019050818103600083015261361d818461305d565b905092915050565b6000602082019050818103600083015261363f8184613100565b905092915050565b6000604051905081810181811067ffffffffffffffff8211171561366a57600080fd5b8060405250919050565b600067ffffffffffffffff82111561368b57600080fd5b601f19601f8301169050602081019050919050565b60008160005260206000209050919050565b600081519050919050565b600081519050919050565b600073ffffffffffffffffffffffffffffffffffffffff82169050919050565b60008115159050919050565b6000819050919050565b6000819050919050565b600073ffffffffffffffffffffffffffffffffffffffff82169050919050565b6000819050919050565b6000819050919050565b82818337600083830152505050565b60005b8381101561376957808201518184015260208101905061374e565b83811115613778576000848401525b50505050565b6000601f19601f83011690509190505600a265627a7a72305820ad08755909d8292879bb95172191bc3e50978e6472bb02afbc17391e6314cd146c6578706572696d656e74616cf50037",
  "source": "pragma solidity ^0.4.24;\r\npragma experimental ABIEncoderV2;\r\n\r\nimport \"./Utils.sol\";\r\n\r\ncontract BountyApp{\r\n\r\n    using Utils for *;\r\n\r\n    int userId = 0;\r\n    int jobId = 0;\r\n    address private owner;\r\n\r\n    struct UserProfile{\r\n        int id;\r\n        string userName;\r\n        string password;\r\n        int role;\r\n        bool exist;\r\n    }\r\n\r\n    struct JobProfile{\r\n        string title;\r\n        string description;\r\n        address employer;\r\n        address freelancer;\r\n        int status;\r\n        uint price;\r\n        bool exist;\r\n\r\n    }\r\n\r\n    mapping(address => UserProfile) public user;\r\n    mapping(int => JobProfile) public job;\r\n\r\n    event jobIsFinished(\r\n        int jobId,\r\n        bool finished\r\n    );\r\n\r\n\r\n    event userIsLogin(\r\n        int id,\r\n        string userName,\r\n        string password,\r\n        int role,\r\n        bool exist\r\n    );\r\n\r\n    event jobIsCreated(\r\n        int jobId,\r\n        string title,\r\n        string description,\r\n        address employer,\r\n        address freelancer,\r\n        int status,\r\n        uint price,\r\n        bool exist\r\n    );\r\n\r\n\r\n    event jobIdNow(\r\n        int jobId\r\n    );\r\n\r\n\r\n\r\n    modifier isOwner() {\r\n        require(msg.sender == owner, 'The address is not owner !!');\r\n        _;\r\n    }\r\n\r\n    modifier isDuplicated() {\r\n        require(user[msg.sender].exist != true , 'The user has already been existed !!!');\r\n        _;\r\n    }\r\n\r\n    modifier isRegisteredUser(string _userName, string _password) {\r\n        require(user[msg.sender].exist == true , 'The user has not been registered !!!');\r\n        require( keccak256(user[msg.sender].userName) == keccak256(_userName) , 'The username is invalid');\r\n        require( keccak256(user[msg.sender].password) == keccak256(_password) , 'The password is invalid');\r\n        _;\r\n    }\r\n\r\n    modifier isValidRole(int _role) {\r\n        require(user[msg.sender].role == _role , 'The user has not correct role !!!');\r\n        _;\r\n    }\r\n\r\n    modifier isValidJob(int _status, int _jobId) {\r\n        require(job[_jobId].exist == true, 'The job is not registered');\r\n        require(job[_jobId].status == _status, 'The job is already in process');\r\n        _;\r\n    }\r\n\r\n    modifier isValidTransfer(int _jobId){\r\n        require(job[_jobId].employer == msg.sender, 'The employer is invalid !!');\r\n        require(msg.sender.balance > job[_jobId].price, 'No enough money to pay');\r\n        _;\r\n    }\r\n\r\n    constructor() public {\r\n        owner= msg.sender;\r\n    }\r\n\r\n    function signUp(string _userName, string _password, int _role) public isDuplicated returns (UserProfile){\r\n\r\n        userId = userId + 1;\r\n\r\n        user[msg.sender].id = userId;\r\n        user[msg.sender].userName = _userName;\r\n        user[msg.sender].password = _password;\r\n        user[msg.sender].role = _role;\r\n        user[msg.sender].exist = true;\r\n\r\n        emit userIsLogin(userId, _userName, _password, _role, true);\r\n\r\n        return user[msg.sender];\r\n\r\n    }\r\n\r\n    function login(string _userName, string _password) public isRegisteredUser(_userName, _password) returns (UserProfile) {\r\n\r\n        emit userIsLogin(user[msg.sender].id, user[msg.sender].userName, user[msg.sender].password, user[msg.sender].role, user[msg.sender].exist);\r\n\r\n        return user[msg.sender];\r\n\r\n    }\r\n\r\n    function createJob(string _title, string _description, int _status, uint _price) public isValidRole(0) returns (JobProfile) {\r\n\r\n//        require(msg.sender.balance >= _price, 'Not enough money to pay');\r\n\r\n        jobId = jobId + 1;\r\n        job[jobId].title = _title;\r\n        job[jobId].description = _description;\r\n        job[jobId].employer = msg.sender;\r\n        job[jobId].status = _status;\r\n        job[jobId].price = _price;\r\n        job[jobId].exist = true;\r\n\r\n        emit jobIsCreated(jobId, _title, _description, msg.sender, job[jobId].freelancer, _status, _price, true);\r\n\r\n    return job[jobId];\r\n\r\n    }\r\n\r\n    function getJobId() public returns(int) {\r\n        emit jobIdNow(jobId);\r\n        return jobId;\r\n    }\r\n\r\n\r\n    function getJob(int _jobId) public returns(JobProfile) {\r\n\r\n        emit jobIsCreated(_jobId, job[_jobId].title, job[_jobId].description, job[_jobId].employer, job[_jobId].freelancer, job[_jobId].status, job[_jobId].price, true);\r\n        return job[_jobId];\r\n    }\r\n\r\n    function confirmByFreelancer(int _jobId) public isValidRole(1) isValidJob(0, _jobId) returns (address){\r\n\r\n        job[_jobId].status = 1;\r\n\r\n        return msg.sender;\r\n\r\n    }\r\n\r\n    function confirmByEmployer(int _jobId, address _freelancer) isValidRole(0) isValidJob(1, _jobId) public returns (JobProfile){\r\n\r\n        require(job[_jobId].employer == msg.sender , 'The user is not the employer for this job !!!');\r\n\r\n        job[_jobId].status = 2;\r\n        job[_jobId].freelancer = _freelancer;\r\n\r\n        return job[_jobId];\r\n\r\n    }\r\n\r\n    function workSubmission(int _jobId) public isValidRole(1) isValidJob(2, _jobId) returns (JobProfile){\r\n\r\n        require(job[_jobId].freelancer == msg.sender , 'The user is not the freelancer for this job !!!');\r\n\r\n        job[_jobId].status = 3;\r\n\r\n        return job[_jobId];\r\n\r\n    }\r\n\r\n\r\n    function transfer(int _jobId) public payable isValidTransfer(_jobId) returns (JobProfile){\r\n\r\n        job[_jobId].status = 4;\r\n\r\n        job[_jobId].freelancer.send(msg.value);\r\n\r\n        emit jobIsFinished(_jobId, true);\r\n\r\n        return job[_jobId];\r\n\r\n    }\r\n\r\n\r\n    function remove() private isOwner{\r\n        selfdestruct(0x0);\r\n    }\r\n}\r\n",
  "sourcePath": "G:\\Work\\Ponisha\\SCPonisha\\SCReact\\contracts\\BountyApp.sol",
  "compiler": {
    "name": "solc",
    "version": "0.4.25+commit.59dbf8f1.Emscripten.clang"
  },
  "schemaVersion": "2.0.2",
  "updatedAt": "2020-11-24T19:16:03.379Z"
}