{
  "contractName": "Utils",
  "abi": [
    {
      "constant": true,
      "inputs": [
        {
          "name": "price",
          "type": "uint256"
        }
      ],
      "name": "etherToWei",
      "outputs": [
        {
          "name": "",
          "type": "uint256"
        }
      ],
      "payable": false,
      "stateMutability": "pure",
      "type": "function"
    }
  ],
  "bytecode": "0x60cd61002f600b82828239805160001a6073146000811461001f57610021565bfe5b5030600052607381538281f30073000000000000000000000000000000000000000030146080604052600436106056576000357c0100000000000000000000000000000000000000000000000000000000900463ffffffff168063d8916bb914605b575b600080fd5b607760048036038101908080359060200190929190505050608d565b6040518082815260200191505060405180910390f35b6000670de0b6b3a7640000820290509190505600a165627a7a7230582035108decfc57185ff4647979fa093eec95d4972f7431cc257442a15f107db49b0029",
  "source": "pragma solidity ^0.4.0;\r\n\r\nlibrary Utils {\r\n    function etherToWei(uint price) public pure returns(uint){\r\n        return price * 1 ether;\r\n    }\r\n\r\n}\r\n",
  "sourcePath": "G:\\Work\\Ponisha\\SCPonisha\\SCReact\\contracts\\Utils.sol",
  "compiler": {
    "name": "solc",
    "version": "0.4.25+commit.59dbf8f1.Emscripten.clang"
  },
  "schemaVersion": "2.0.2",
  "updatedAt": "2020-11-24T19:25:59.030Z"
}